{
  "contractName": "VendingMachine",
  "abi": [
    {
      "inputs": [],
      "stateMutability": "nonpayable",
      "type": "constructor"
    },
    {
      "inputs": [
        {
          "internalType": "address",
          "name": "",
          "type": "address"
        }
      ],
      "name": "donutBalances",
      "outputs": [
        {
          "internalType": "uint256",
          "name": "",
          "type": "uint256"
        }
      ],
      "stateMutability": "view",
      "type": "function"
    },
    {
      "inputs": [],
      "name": "owner",
      "outputs": [
        {
          "internalType": "address",
          "name": "",
          "type": "address"
        }
      ],
      "stateMutability": "view",
      "type": "function"
    },
    {
      "inputs": [],
      "name": "getVendingMachineDonutsBalance",
      "outputs": [
        {
          "internalType": "uint256",
          "name": "",
          "type": "uint256"
        }
      ],
      "stateMutability": "view",
      "type": "function"
    },
    {
      "inputs": [
        {
          "internalType": "uint256",
          "name": "amount",
          "type": "uint256"
        }
      ],
      "name": "restock",
      "outputs": [],
      "stateMutability": "nonpayable",
      "type": "function"
    },
    {
      "inputs": [
        {
          "internalType": "uint256",
          "name": "amount",
          "type": "uint256"
        }
      ],
      "name": "purchase",
      "outputs": [],
      "stateMutability": "payable",
      "type": "function"
    }
  ],
  "bytecode": "0x608060405234801561001057600080fd5b50336000806101000a81548173ffffffffffffffffffffffffffffffffffffffff021916908373ffffffffffffffffffffffffffffffffffffffff1602179055506064600160003073ffffffffffffffffffffffffffffffffffffffff1673ffffffffffffffffffffffffffffffffffffffff168152602001908152602001600020819055506108a8806100a56000396000f3fe60806040526004361061004a5760003560e01c80633a8604791461004f5780638da5cb5b1461007a5780639a020d8a146100a5578063c21a702a146100e2578063efef39a11461010b575b600080fd5b34801561005b57600080fd5b50610064610127565b60405161007191906104b2565b60405180910390f35b34801561008657600080fd5b5061008f61016e565b60405161009c919061050e565b60405180910390f35b3480156100b157600080fd5b506100cc60048036038101906100c7919061055a565b610192565b6040516100d991906104b2565b60405180910390f35b3480156100ee57600080fd5b50610109600480360381019061010491906105b3565b6101aa565b005b610125600480360381019061012091906105b3565b610291565b005b6000600160003073ffffffffffffffffffffffffffffffffffffffff1673ffffffffffffffffffffffffffffffffffffffff16815260200190815260200160002054905090565b60008054906101000a900473ffffffffffffffffffffffffffffffffffffffff1681565b60016020528060005260406000206000915090505481565b60008054906101000a900473ffffffffffffffffffffffffffffffffffffffff1673ffffffffffffffffffffffffffffffffffffffff163373ffffffffffffffffffffffffffffffffffffffff1614610238576040517f08c379a000000000000000000000000000000000000000000000000000000000815260040161022f90610663565b60405180910390fd5b80600160003073ffffffffffffffffffffffffffffffffffffffff1673ffffffffffffffffffffffffffffffffffffffff168152602001908152602001600020600082825461028791906106b2565b9250508190555050565b80600160003073ffffffffffffffffffffffffffffffffffffffff1673ffffffffffffffffffffffffffffffffffffffff168152602001908152602001600020541015610313576040517f08c379a000000000000000000000000000000000000000000000000000000000815260040161030a90610758565b60405180910390fd5b671bc16d674ec80000816103279190610778565b341015610369576040517f08c379a00000000000000000000000000000000000000000000000000000000081526004016103609061081e565b60405180910390fd5b80600160003073ffffffffffffffffffffffffffffffffffffffff1673ffffffffffffffffffffffffffffffffffffffff16815260200190815260200160002060008282546103b8919061083e565b9250508190555080600160003373ffffffffffffffffffffffffffffffffffffffff1673ffffffffffffffffffffffffffffffffffffffff168152602001908152602001600020600082825461040e91906106b2565b92505081905550671bc16d674ec80000816104299190610778565b341115610496573373ffffffffffffffffffffffffffffffffffffffff166108fc671bc16d674ec800008361045e9190610778565b34610469919061083e565b9081150290604051600060405180830381858888f19350505050158015610494573d6000803e3d6000fd5b505b50565b6000819050919050565b6104ac81610499565b82525050565b60006020820190506104c760008301846104a3565b92915050565b600073ffffffffffffffffffffffffffffffffffffffff82169050919050565b60006104f8826104cd565b9050919050565b610508816104ed565b82525050565b600060208201905061052360008301846104ff565b92915050565b600080fd5b610537816104ed565b811461054257600080fd5b50565b6000813590506105548161052e565b92915050565b6000602082840312156105705761056f610529565b5b600061057e84828501610545565b91505092915050565b61059081610499565b811461059b57600080fd5b50565b6000813590506105ad81610587565b92915050565b6000602082840312156105c9576105c8610529565b5b60006105d78482850161059e565b91505092915050565b600082825260208201905092915050565b7f6f6e6c7920746865206f776e65722063616e20726573746f636b20746869732060008201527f6d616368696e652e000000000000000000000000000000000000000000000000602082015250565b600061064d6028836105e0565b9150610658826105f1565b604082019050919050565b6000602082019050818103600083015261067c81610640565b9050919050565b7f4e487b7100000000000000000000000000000000000000000000000000000000600052601160045260246000fd5b60006106bd82610499565b91506106c883610499565b92508282019050808211156106e0576106df610683565b5b92915050565b7f6e6f7420656e6f7567687420646f6e75747320746f2066756c66696c6c20726560008201527f7175657374000000000000000000000000000000000000000000000000000000602082015250565b60006107426025836105e0565b915061074d826106e6565b604082019050919050565b6000602082019050818103600083015261077181610735565b9050919050565b600061078382610499565b915061078e83610499565b9250817fffffffffffffffffffffffffffffffffffffffffffffffffffffffffffffffff04831182151516156107c7576107c6610683565b5b828202905092915050565b7f696e73756666696369656e742066756e64730000000000000000000000000000600082015250565b60006108086012836105e0565b9150610813826107d2565b602082019050919050565b60006020820190508181036000830152610837816107fb565b9050919050565b600061084982610499565b915061085483610499565b925082820390508181111561086c5761086b610683565b5b9291505056fea2646970667358221220acac6715b151c7463b29385fa26b729ffa7124d68fb41ff3ca43782dfaa409a564736f6c63430008100033",
  "immutableReferences": {},
  "source": "// SPDX-License-Identifier: MIT\r\npragma solidity >=0.6.0 <0.9.0;\r\n\r\ncontract VendingMachine {\r\n    address public owner;\r\n    mapping(address => uint) public donutBalances;\r\n\r\n    constructor() public {\r\n        owner = msg.sender;\r\n        donutBalances[address(this)] = 100; \r\n    }\r\n\r\n    function getVendingMachineDonutsBalance() public view returns (uint) {\r\n        return donutBalances[address(this)];\r\n    }\r\n\r\n    function restock(uint amount) public {\r\n        require(msg.sender == owner, \"only the owner can restock this machine.\");\r\n        donutBalances[address(this)] += amount;\r\n    }    \r\n\r\n    function purchase(uint amount) public payable{\r\n        require(donutBalances[address(this)] >= amount, \"not enought donuts to fulfill request\");\r\n        require(msg.value >= amount * 2 ether, \"insufficient funds\");\r\n        donutBalances[address(this)] -= amount;\r\n        donutBalances[msg.sender] += amount;\r\n        if(msg.value > amount *2 ether)\r\n        {\r\n            payable(msg.sender).transfer(msg.value - (amount*2 ether));\r\n        }\r\n    }\r\n}",
  "sourcePath": "D:\\Leassons and Assignments\\Web3 practice\\Truffle1\\Backend\\contracts\\VendingMachine.sol",
  "compiler": {
    "name": "solc",
    "version": "0.8.16+commit.07a7930e.Emscripten.clang"
  },
  "schemaVersion": "3.4.9",
  "updatedAt": "2022-09-07T22:53:25.451Z",
  "devdoc": {
    "kind": "dev",
    "methods": {},
    "version": 1
  },
  "userdoc": {
    "kind": "user",
    "methods": {},
    "version": 1
  }
}