{
  "contractName": "VerifySignature",
  "abi": [
    {
      "inputs": [
        {
          "internalType": "address",
          "name": "_to",
          "type": "address"
        },
        {
          "internalType": "uint256",
          "name": "_amount",
          "type": "uint256"
        },
        {
          "internalType": "string",
          "name": "_message",
          "type": "string"
        },
        {
          "internalType": "uint256",
          "name": "_nonce",
          "type": "uint256"
        }
      ],
      "name": "getMessageHash",
      "outputs": [
        {
          "internalType": "bytes32",
          "name": "",
          "type": "bytes32"
        }
      ],
      "stateMutability": "pure",
      "type": "function",
      "constant": true
    },
    {
      "inputs": [
        {
          "internalType": "bytes32",
          "name": "_messageHash",
          "type": "bytes32"
        }
      ],
      "name": "getEthSignedMessageHash",
      "outputs": [
        {
          "internalType": "bytes32",
          "name": "",
          "type": "bytes32"
        }
      ],
      "stateMutability": "pure",
      "type": "function",
      "constant": true
    },
    {
      "inputs": [
        {
          "internalType": "address",
          "name": "_signer",
          "type": "address"
        },
        {
          "internalType": "address",
          "name": "_to",
          "type": "address"
        },
        {
          "internalType": "uint256",
          "name": "_amount",
          "type": "uint256"
        },
        {
          "internalType": "string",
          "name": "_message",
          "type": "string"
        },
        {
          "internalType": "uint256",
          "name": "_nonce",
          "type": "uint256"
        },
        {
          "internalType": "bytes",
          "name": "signature",
          "type": "bytes"
        }
      ],
      "name": "verify",
      "outputs": [
        {
          "internalType": "bool",
          "name": "",
          "type": "bool"
        }
      ],
      "stateMutability": "pure",
      "type": "function",
      "constant": true
    },
    {
      "inputs": [
        {
          "internalType": "bytes32",
          "name": "_ethSignedMessageHash",
          "type": "bytes32"
        },
        {
          "internalType": "bytes",
          "name": "_signature",
          "type": "bytes"
        }
      ],
      "name": "recoverSigner",
      "outputs": [
        {
          "internalType": "address",
          "name": "",
          "type": "address"
        }
      ],
      "stateMutability": "pure",
      "type": "function",
      "constant": true
    },
    {
      "inputs": [
        {
          "internalType": "bytes",
          "name": "sig",
          "type": "bytes"
        }
      ],
      "name": "splitSignature",
      "outputs": [
        {
          "internalType": "bytes32",
          "name": "r",
          "type": "bytes32"
        },
        {
          "internalType": "bytes32",
          "name": "s",
          "type": "bytes32"
        },
        {
          "internalType": "uint8",
          "name": "v",
          "type": "uint8"
        }
      ],
      "stateMutability": "pure",
      "type": "function",
      "constant": true
    }
  ],
  "bytecode": "0x608060405234801561001057600080fd5b50610b5d806100206000396000f3fe608060405234801561001057600080fd5b50600436106100575760003560e01c806397aba7f91461005c578063a35f8a401461008c578063a7bb5803146100bc578063abe5026a146100ee578063fa5408011461011e575b600080fd5b61007660048036038101906100719190610482565b61014e565b604051610083919061051f565b60405180910390f35b6100a660048036038101906100a1919061063d565b6101bd565b6040516100b391906106cf565b60405180910390f35b6100d660048036038101906100d191906106ea565b6101f6565b6040516100e59392919061074f565b60405180910390f35b61010860048036038101906101039190610786565b61025e565b6040516101159190610866565b60405180910390f35b61013860048036038101906101339190610881565b6102c2565b60405161014591906106cf565b60405180910390f35b60008060008061015d856101f6565b9250925092506001868285856040516000815260200160405260405161018694939291906108ae565b6020604051602081039080840390855afa1580156101a8573d6000803e3d6000fd5b50505060206040510351935050505092915050565b6000848484846040516020016101d694939291906109cd565b604051602081830303815290604052805190602001209050949350505050565b6000806000604184511461023f576040517f08c379a000000000000000000000000000000000000000000000000000000000815260040161023690610a74565b60405180910390fd5b6020840151925060408401519150606084015160001a90509193909250565b60008061026d878787876101bd565b9050600061027a826102c2565b90508873ffffffffffffffffffffffffffffffffffffffff1661029d828661014e565b73ffffffffffffffffffffffffffffffffffffffff1614925050509695505050505050565b6000816040516020016102d59190610b01565b604051602081830303815290604052805190602001209050919050565b6000604051905090565b600080fd5b600080fd5b6000819050919050565b61031981610306565b811461032457600080fd5b50565b60008135905061033681610310565b92915050565b600080fd5b600080fd5b6000601f19601f8301169050919050565b7f4e487b7100000000000000000000000000000000000000000000000000000000600052604160045260246000fd5b61038f82610346565b810181811067ffffffffffffffff821117156103ae576103ad610357565b5b80604052505050565b60006103c16102f2565b90506103cd8282610386565b919050565b600067ffffffffffffffff8211156103ed576103ec610357565b5b6103f682610346565b9050602081019050919050565b82818337600083830152505050565b6000610425610420846103d2565b6103b7565b90508281526020810184848401111561044157610440610341565b5b61044c848285610403565b509392505050565b600082601f8301126104695761046861033c565b5b8135610479848260208601610412565b91505092915050565b60008060408385031215610499576104986102fc565b5b60006104a785828601610327565b925050602083013567ffffffffffffffff8111156104c8576104c7610301565b5b6104d485828601610454565b9150509250929050565b600073ffffffffffffffffffffffffffffffffffffffff82169050919050565b6000610509826104de565b9050919050565b610519816104fe565b82525050565b60006020820190506105346000830184610510565b92915050565b610543816104fe565b811461054e57600080fd5b50565b6000813590506105608161053a565b92915050565b6000819050919050565b61057981610566565b811461058457600080fd5b50565b60008135905061059681610570565b92915050565b600067ffffffffffffffff8211156105b7576105b6610357565b5b6105c082610346565b9050602081019050919050565b60006105e06105db8461059c565b6103b7565b9050828152602081018484840111156105fc576105fb610341565b5b610607848285610403565b509392505050565b600082601f8301126106245761062361033c565b5b81356106348482602086016105cd565b91505092915050565b60008060008060808587031215610657576106566102fc565b5b600061066587828801610551565b945050602061067687828801610587565b935050604085013567ffffffffffffffff81111561069757610696610301565b5b6106a38782880161060f565b92505060606106b487828801610587565b91505092959194509250565b6106c981610306565b82525050565b60006020820190506106e460008301846106c0565b92915050565b600060208284031215610700576106ff6102fc565b5b600082013567ffffffffffffffff81111561071e5761071d610301565b5b61072a84828501610454565b91505092915050565b600060ff82169050919050565b61074981610733565b82525050565b600060608201905061076460008301866106c0565b61077160208301856106c0565b61077e6040830184610740565b949350505050565b60008060008060008060c087890312156107a3576107a26102fc565b5b60006107b189828a01610551565b96505060206107c289828a01610551565b95505060406107d389828a01610587565b945050606087013567ffffffffffffffff8111156107f4576107f3610301565b5b61080089828a0161060f565b935050608061081189828a01610587565b92505060a087013567ffffffffffffffff81111561083257610831610301565b5b61083e89828a01610454565b9150509295509295509295565b60008115159050919050565b6108608161084b565b82525050565b600060208201905061087b6000830184610857565b92915050565b600060208284031215610897576108966102fc565b5b60006108a584828501610327565b91505092915050565b60006080820190506108c360008301876106c0565b6108d06020830186610740565b6108dd60408301856106c0565b6108ea60608301846106c0565b95945050505050565b60008160601b9050919050565b600061090b826108f3565b9050919050565b600061091d82610900565b9050919050565b610935610930826104fe565b610912565b82525050565b6000819050919050565b61095661095182610566565b61093b565b82525050565b600081519050919050565b600081905092915050565b60005b83811015610990578082015181840152602081019050610975565b60008484015250505050565b60006109a78261095c565b6109b18185610967565b93506109c1818560208601610972565b80840191505092915050565b60006109d98287610924565b6014820191506109e98286610945565b6020820191506109f9828561099c565b9150610a058284610945565b60208201915081905095945050505050565b600082825260208201905092915050565b7f696e76616c6964207369676e6174757265206c656e6774680000000000000000600082015250565b6000610a5e601883610a17565b9150610a6982610a28565b602082019050919050565b60006020820190508181036000830152610a8d81610a51565b9050919050565b7f19457468657265756d205369676e6564204d6573736167653a0a333200000000600082015250565b6000610aca601c83610967565b9150610ad582610a94565b601c82019050919050565b6000819050919050565b610afb610af682610306565b610ae0565b82525050565b6000610b0c82610abd565b9150610b188284610aea565b6020820191508190509291505056fea26469706673582212203b93be8a80559540bf2828a2e159c7440b57381ff252147c1da0ad9a81eb0a3b64736f6c63430008100033",
  "immutableReferences": {},
  "source": "// SPDX-License-Identifier: MIT\r\n// pragma solidity >=0.7.0 <0.9.0;\r\npragma solidity >=0.6.0 <0.9.0;\r\n\r\n/* Signature Verification\r\n\r\nHow to Sign and Verify\r\n# Signing\r\n1. Create message to sign\r\n2. Hash the message\r\n3. Sign the hash (off chain, keep your private key secret)\r\n\r\n# Verify\r\n1. Recreate hash from the original message\r\n2. Recover signer from signature and hash\r\n3. Compare recovered signer to claimed signer\r\n*/\r\n\r\ncontract VerifySignature {\r\n    /* 1. Unlock MetaMask account\r\n    ethereum.enable()\r\n    */\r\n\r\n    /* 2. Get message hash to sign\r\n    getMessageHash(\r\n        0x14723A09ACff6D2A60DcdF7aA4AFf308FDDC160C,\r\n        123,\r\n        \"coffee and donuts\",\r\n        1\r\n    )\r\n\r\n    hash = \"0xcf36ac4f97dc10d91fc2cbb20d718e94a8cbfe0f82eaedc6a4aa38946fb797cd\"\r\n    */\r\n    function getMessageHash(\r\n        address _to,\r\n        uint _amount,\r\n        string memory _message,\r\n        uint _nonce\r\n    ) public pure returns (bytes32) {\r\n        return keccak256(abi.encodePacked(_to, _amount, _message, _nonce));\r\n    }\r\n\r\n    /* 3. Sign message hash\r\n    # using browser\r\n    account = \"copy paste account of signer here\"\r\n    ethereum.request({ method: \"personal_sign\", params: [account, hash]}).then(console.log)\r\n\r\n    # using web3\r\n    web3.personal.sign(hash, web3.eth.defaultAccount, console.log)\r\n\r\n    Signature will be different for different accounts\r\n    0x993dab3dd91f5c6dc28e17439be475478f5635c92a56e17e82349d3fb2f166196f466c0b4e0c146f285204f0dcb13e5ae67bc33f4b888ec32dfe0a063e8f3f781b\r\n    */\r\n    function getEthSignedMessageHash(bytes32 _messageHash)\r\n        public\r\n        pure\r\n        returns (bytes32)\r\n    {\r\n        /*\r\n        Signature is produced by signing a keccak256 hash with the following format:\r\n        \"\\x19Ethereum Signed Message\\n\" + len(msg) + msg\r\n        */\r\n        return\r\n            keccak256(\r\n                abi.encodePacked(\"\\x19Ethereum Signed Message:\\n32\", _messageHash)\r\n            );\r\n    }\r\n\r\n    /* 4. Verify signature\r\n    signer = 0xB273216C05A8c0D4F0a4Dd0d7Bae1D2EfFE636dd\r\n    to = 0x14723A09ACff6D2A60DcdF7aA4AFf308FDDC160C\r\n    amount = 123\r\n    message = \"coffee and donuts\"\r\n    nonce = 1\r\n    signature =\r\n        0x993dab3dd91f5c6dc28e17439be475478f5635c92a56e17e82349d3fb2f166196f466c0b4e0c146f285204f0dcb13e5ae67bc33f4b888ec32dfe0a063e8f3f781b\r\n    */\r\n    function verify(\r\n        address _signer,\r\n        address _to,\r\n        uint _amount,\r\n        string memory _message,\r\n        uint _nonce,\r\n        bytes memory signature\r\n    ) public pure returns (bool) {\r\n        bytes32 messageHash = getMessageHash(_to, _amount, _message, _nonce);\r\n        bytes32 ethSignedMessageHash = getEthSignedMessageHash(messageHash);\r\n\r\n        return recoverSigner(ethSignedMessageHash, signature) == _signer;\r\n    }\r\n\r\n    function recoverSigner(bytes32 _ethSignedMessageHash, bytes memory _signature)\r\n        public\r\n        pure\r\n        returns (address)\r\n    {\r\n        (bytes32 r, bytes32 s, uint8 v) = splitSignature(_signature);\r\n\r\n        return ecrecover(_ethSignedMessageHash, v, r, s);\r\n    }\r\n\r\n    function splitSignature(bytes memory sig)\r\n        public\r\n        pure\r\n        returns (\r\n            bytes32 r,\r\n            bytes32 s,\r\n            uint8 v\r\n        )\r\n    {\r\n        require(sig.length == 65, \"invalid signature length\");\r\n\r\n        assembly {\r\n            /*\r\n            First 32 bytes stores the length of the signature\r\n\r\n            add(sig, 32) = pointer of sig + 32\r\n            effectively, skips first 32 bytes of signature\r\n\r\n            mload(p) loads next 32 bytes starting at the memory address p into memory\r\n            */\r\n\r\n            // first 32 bytes, after the length prefix\r\n            r := mload(add(sig, 32))\r\n            // second 32 bytes\r\n            s := mload(add(sig, 64))\r\n            // final byte (first byte of the next 32 bytes)\r\n            v := byte(0, mload(add(sig, 96)))\r\n        }\r\n\r\n        // implicitly return (r, s, v)\r\n    }\r\n}",
  "sourcePath": "D:\\Leassons and Assignments\\Web3 practice\\Truffle1\\Backend\\contracts\\VerifySignature.sol",
  "compiler": {
    "name": "solc",
    "version": "0.8.16+commit.07a7930e.Emscripten.clang"
  },
  "schemaVersion": "3.4.9",
  "updatedAt": "2022-09-07T22:54:28.169Z",
  "networkType": "ethereum",
  "devdoc": {
    "kind": "dev",
    "methods": {},
    "version": 1
  },
  "userdoc": {
    "kind": "user",
    "methods": {},
    "version": 1
  }
}